{"abi":[{"type":"constructor","inputs":[],"stateMutability":"nonpayable"},{"type":"function","name":"addValue","inputs":[{"name":"newValue","type":"uint256","internalType":"uint256"}],"outputs":[],"stateMutability":"nonpayable"},{"type":"function","name":"balances","inputs":[{"name":"","type":"address","internalType":"address"}],"outputs":[{"name":"","type":"uint256","internalType":"uint256"}],"stateMutability":"view"},{"type":"function","name":"deposit","inputs":[],"outputs":[],"stateMutability":"payable"},{"type":"function","name":"fixedValues","inputs":[{"name":"","type":"uint256","internalType":"uint256"}],"outputs":[{"name":"","type":"uint256","internalType":"uint256"}],"stateMutability":"view"},{"type":"function","name":"getTotalBalance","inputs":[{"name":"user1","type":"address","internalType":"address"},{"name":"user2","type":"address","internalType":"address"}],"outputs":[{"name":"","type":"uint256","internalType":"uint256"}],"stateMutability":"view"},{"type":"function","name":"owner","inputs":[],"outputs":[{"name":"","type":"address","internalType":"address"}],"stateMutability":"view"},{"type":"function","name":"paused","inputs":[],"outputs":[{"name":"","type":"bool","internalType":"bool"}],"stateMutability":"view"},{"type":"function","name":"setSmallValues","inputs":[{"name":"val1","type":"uint128","internalType":"uint128"},{"name":"val2","type":"uint128","internalType":"uint128"}],"outputs":[],"stateMutability":"nonpayable"},{"type":"function","name":"setValue","inputs":[{"name":"newValue","type":"uint256","internalType":"uint256"}],"outputs":[],"stateMutability":"nonpayable"},{"type":"function","name":"smallValue1","inputs":[],"outputs":[{"name":"","type":"uint128","internalType":"uint128"}],"stateMutability":"view"},{"type":"function","name":"smallValue2","inputs":[],"outputs":[{"name":"","type":"uint128","internalType":"uint128"}],"stateMutability":"view"},{"type":"function","name":"togglePause","inputs":[],"outputs":[],"stateMutability":"nonpayable"},{"type":"function","name":"transfer","inputs":[{"name":"to","type":"address","internalType":"address"},{"name":"amount","type":"uint256","internalType":"uint256"}],"outputs":[],"stateMutability":"nonpayable"},{"type":"function","name":"updateFixedValue","inputs":[{"name":"index","type":"uint256","internalType":"uint256"},{"name":"newValue","type":"uint256","internalType":"uint256"}],"outputs":[],"stateMutability":"nonpayable"},{"type":"function","name":"value1","inputs":[],"outputs":[{"name":"","type":"uint256","internalType":"uint256"}],"stateMutability":"view"},{"type":"function","name":"values","inputs":[{"name":"","type":"uint256","internalType":"uint256"}],"outputs":[{"name":"","type":"uint256","internalType":"uint256"}],"stateMutability":"view"},{"type":"event","name":"Transfer","inputs":[{"name":"from","type":"address","indexed":false,"internalType":"address"},{"name":"to","type":"address","indexed":false,"internalType":"address"},{"name":"amount","type":"uint256","indexed":false,"internalType":"uint256"}],"anonymous":false},{"type":"event","name":"ValueSet","inputs":[{"name":"value","type":"uint256","indexed":false,"internalType":"uint256"}],"anonymous":false}],"bytecode":{"object":"0x608060405234801561000f575f5ffd5b503360015f6101000a81548173ffffffffffffffffffffffffffffffffffffffff021916908373ffffffffffffffffffffffffffffffffffffffff16021790555060645f81905550600a60055f6003811061006d5761006c610173565b5b01819055506014600560016003811061008957610088610173565b5b0181905550601e60056002600381106100a5576100a4610173565b5b018190555060046103e8908060018154018082558091505060019003905f5260205f20015f909190919091505560046107d0908060018154018082558091505060019003905f5260205f20015f9091909190915055607b60025f6101000a8154816fffffffffffffffffffffffffffffffff02191690836fffffffffffffffffffffffffffffffff1602179055506101c8600260106101000a8154816fffffffffffffffffffffffffffffffff02191690836fffffffffffffffffffffffffffffffff1602179055506101a0565b7f4e487b71000000000000000000000000000000000000000000000000000000005f52603260045260245ffd5b61103b806101ad5f395ff3fe6080604052600436106100f2575f3560e01c8063766da82e11610089578063a9059cbb11610058578063a9059cbb14610330578063c4ae316814610358578063d0e30db01461036e578063f787285c14610378576100f2565b8063766da82e146102765780637d1f5362146102a05780638da5cb5b146102ca57806392de80a5146102f4576100f2565b806355241077116100c557806355241077146101c05780635b9af12b146101e85780635c975abb146102105780635e383d211461023a576100f2565b806327e235e3146100f65780633033413b14610132578063400228611461015c57806351bd551f14610184575b5f5ffd5b348015610101575f5ffd5b5061011c60048036038101906101179190610aef565b6103a0565b6040516101299190610b32565b60405180910390f35b34801561013d575f5ffd5b506101466103b5565b6040516101539190610b32565b60405180910390f35b348015610167575f5ffd5b50610182600480360381019061017d9190610b75565b6103ba565b005b34801561018f575f5ffd5b506101aa60048036038101906101a59190610bb3565b61046b565b6040516101b79190610b32565b60405180910390f35b3480156101cb575f5ffd5b506101e660048036038101906101e19190610bf1565b6104fa565b005b3480156101f3575f5ffd5b5061020e60048036038101906102099190610bf1565b61058a565b005b34801561021b575f5ffd5b50610224610603565b6040516102319190610c36565b60405180910390f35b348015610245575f5ffd5b50610260600480360381019061025b9190610bf1565b610616565b60405161026d9190610b32565b60405180910390f35b348015610281575f5ffd5b5061028a610636565b6040516102979190610c79565b60405180910390f35b3480156102ab575f5ffd5b506102b4610657565b6040516102c19190610c79565b60405180910390f35b3480156102d5575f5ffd5b506102de610679565b6040516102eb9190610ca1565b60405180910390f35b3480156102ff575f5ffd5b5061031a60048036038101906103159190610bf1565b61069e565b6040516103279190610b32565b60405180910390f35b34801561033b575f5ffd5b5061035660048036038101906103519190610cba565b6106b7565b005b348015610363575f5ffd5b5061036c61086c565b005b610376610927565b005b348015610383575f5ffd5b5061039e60048036038101906103999190610d22565b6109cc565b005b6003602052805f5260405f205f915090505481565b5f5481565b600382106103fd576040517f08c379a00000000000000000000000000000000000000000000000000000000081526004016103f490610dba565b60405180910390fd5b600160149054906101000a900460ff161561044d576040517f08c379a000000000000000000000000000000000000000000000000000000000815260040161044490610e22565b60405180910390fd5b806005836003811061046257610461610e40565b5b01819055505050565b5f60035f8373ffffffffffffffffffffffffffffffffffffffff1673ffffffffffffffffffffffffffffffffffffffff1681526020019081526020015f205460035f8573ffffffffffffffffffffffffffffffffffffffff1673ffffffffffffffffffffffffffffffffffffffff1681526020019081526020015f20546104f29190610e9a565b905092915050565b600160149054906101000a900460ff161561054a576040517f08c379a000000000000000000000000000000000000000000000000000000000815260040161054190610e22565b60405180910390fd5b805f819055507f012c78e2b84325878b1bd9d250d772cfe5bda7722d795f45036fa5e1e6e303fc8160405161057f9190610b32565b60405180910390a150565b600160149054906101000a900460ff16156105da576040517f08c379a00000000000000000000000000000000000000000000000000000000081526004016105d190610e22565b60405180910390fd5b600481908060018154018082558091505060019003905f5260205f20015f909190919091505550565b600160149054906101000a900460ff1681565b60048181548110610625575f80fd5b905f5260205f20015f915090505481565b60025f9054906101000a90046fffffffffffffffffffffffffffffffff1681565b600260109054906101000a90046fffffffffffffffffffffffffffffffff1681565b60015f9054906101000a900473ffffffffffffffffffffffffffffffffffffffff1681565b600581600381106106ad575f80fd5b015f915090505481565b600160149054906101000a900460ff1615610707576040517f08c379a00000000000000000000000000000000000000000000000000000000081526004016106fe90610e22565b60405180910390fd5b8060035f3373ffffffffffffffffffffffffffffffffffffffff1673ffffffffffffffffffffffffffffffffffffffff1681526020019081526020015f20541015610787576040517f08c379a000000000000000000000000000000000000000000000000000000000815260040161077e90610f17565b60405180910390fd5b8060035f3373ffffffffffffffffffffffffffffffffffffffff1673ffffffffffffffffffffffffffffffffffffffff1681526020019081526020015f205f8282546107d39190610f35565b925050819055508060035f8473ffffffffffffffffffffffffffffffffffffffff1673ffffffffffffffffffffffffffffffffffffffff1681526020019081526020015f205f8282546108269190610e9a565b925050819055507fddf252ad1be2c89b69c2b068fc378daa952ba7f163c4a11628f55a4df523b3ef33838360405161086093929190610f68565b60405180910390a15050565b60015f9054906101000a900473ffffffffffffffffffffffffffffffffffffffff1673ffffffffffffffffffffffffffffffffffffffff163373ffffffffffffffffffffffffffffffffffffffff16146108fb576040517f08c379a00000000000000000000000000000000000000000000000000000000081526004016108f290610fe7565b60405180910390fd5b600160149054906101000a900460ff1615600160146101000a81548160ff021916908315150217905550565b600160149054906101000a900460ff1615610977576040517f08c379a000000000000000000000000000000000000000000000000000000000815260040161096e90610e22565b60405180910390fd5b3460035f3373ffffffffffffffffffffffffffffffffffffffff1673ffffffffffffffffffffffffffffffffffffffff1681526020019081526020015f205f8282546109c39190610e9a565b92505081905550565b600160149054906101000a900460ff1615610a1c576040517f08c379a0000000000000000000000000000000000000000000000000000000008152600401610a1390610e22565b60405180910390fd5b8160025f6101000a8154816fffffffffffffffffffffffffffffffff02191690836fffffffffffffffffffffffffffffffff16021790555080600260106101000a8154816fffffffffffffffffffffffffffffffff02191690836fffffffffffffffffffffffffffffffff1602179055505050565b5f5ffd5b5f73ffffffffffffffffffffffffffffffffffffffff82169050919050565b5f610abe82610a95565b9050919050565b610ace81610ab4565b8114610ad8575f5ffd5b50565b5f81359050610ae981610ac5565b92915050565b5f60208284031215610b0457610b03610a91565b5b5f610b1184828501610adb565b91505092915050565b5f819050919050565b610b2c81610b1a565b82525050565b5f602082019050610b455f830184610b23565b92915050565b610b5481610b1a565b8114610b5e575f5ffd5b50565b5f81359050610b6f81610b4b565b92915050565b5f5f60408385031215610b8b57610b8a610a91565b5b5f610b9885828601610b61565b9250506020610ba985828601610b61565b9150509250929050565b5f5f60408385031215610bc957610bc8610a91565b5b5f610bd685828601610adb565b9250506020610be785828601610adb565b9150509250929050565b5f60208284031215610c0657610c05610a91565b5b5f610c1384828501610b61565b91505092915050565b5f8115159050919050565b610c3081610c1c565b82525050565b5f602082019050610c495f830184610c27565b92915050565b5f6fffffffffffffffffffffffffffffffff82169050919050565b610c7381610c4f565b82525050565b5f602082019050610c8c5f830184610c6a565b92915050565b610c9b81610ab4565b82525050565b5f602082019050610cb45f830184610c92565b92915050565b5f5f60408385031215610cd057610ccf610a91565b5b5f610cdd85828601610adb565b9250506020610cee85828601610b61565b9150509250929050565b610d0181610c4f565b8114610d0b575f5ffd5b50565b5f81359050610d1c81610cf8565b92915050565b5f5f60408385031215610d3857610d37610a91565b5b5f610d4585828601610d0e565b9250506020610d5685828601610d0e565b9150509250929050565b5f82825260208201905092915050565b7f496e646578206f7574206f6620626f756e6473000000000000000000000000005f82015250565b5f610da4601383610d60565b9150610daf82610d70565b602082019050919050565b5f6020820190508181035f830152610dd181610d98565b9050919050565b7f436f6e74726163742069732070617573656400000000000000000000000000005f82015250565b5f610e0c601283610d60565b9150610e1782610dd8565b602082019050919050565b5f6020820190508181035f830152610e3981610e00565b9050919050565b7f4e487b71000000000000000000000000000000000000000000000000000000005f52603260045260245ffd5b7f4e487b71000000000000000000000000000000000000000000000000000000005f52601160045260245ffd5b5f610ea482610b1a565b9150610eaf83610b1a565b9250828201905080821115610ec757610ec6610e6d565b5b92915050565b7f496e73756666696369656e742062616c616e63650000000000000000000000005f82015250565b5f610f01601483610d60565b9150610f0c82610ecd565b602082019050919050565b5f6020820190508181035f830152610f2e81610ef5565b9050919050565b5f610f3f82610b1a565b9150610f4a83610b1a565b9250828203905081811115610f6257610f61610e6d565b5b92915050565b5f606082019050610f7b5f830186610c92565b610f886020830185610c92565b610f956040830184610b23565b949350505050565b7f4f6e6c79206f776e65722063616e2070617573650000000000000000000000005f82015250565b5f610fd1601483610d60565b9150610fdc82610f9d565b602082019050919050565b5f6020820190508181035f830152610ffe81610fc5565b905091905056fea264697066735822122097c06cd89a2026dd89845a68a9fca70d321e4aaf6dc7a0bfb032ed1fcf5f463f64736f6c634300081c0033","linkReferences":{}},"methodIdentifiers":{"addValue(uint256)":"5b9af12b","balances(address)":"27e235e3","deposit()":"d0e30db0","fixedValues(uint256)":"92de80a5","getTotalBalance(address,address)":"51bd551f","owner()":"8da5cb5b","paused()":"5c975abb","setSmallValues(uint128,uint128)":"f787285c","setValue(uint256)":"55241077","smallValue1()":"766da82e","smallValue2()":"7d1f5362","togglePause()":"c4ae3168","transfer(address,uint256)":"a9059cbb","updateFixedValue(uint256,uint256)":"40022861","value1()":"3033413b","values(uint256)":"5e383d21"},"id":0}